:100000000C947E000C94A6000C94A6000C94A60000
:100010000C94A6000C94A6000C94A6000C94A600C8
:100020000C94A6000C94A6000C94A6000C94A600B8
:100030000C94A6000C94A6000C94A6000C94A600A8
:100040000C9494050C94A6000C9462050C943C0549
:100050000C94A6000C94A6000C94A6000C94A60088
:100060000C94A6000C94A6000000000024002700B9
:100070002A0000000000250028002B0000000008D6
:10008000000201000003040700000000000000005F
:1000900048756D69646974C3A9203D200054656D7D
:1000A00070C3A9726174757265203D200000000064
:1000B00000230026002900040404040404040402AC
:1000C00002020202020303030303030102040810F5
:1000D0002040800102040810200102040810204280
:1000E00069656E76656E756520617520475041378C
:1000F0003838204F432F496F5400DE0511241FBEAE
:10010000CFEFD8E0DEBFCDBF11E0A0E0B1E0ECEE74
:10011000F5E102C005900D92AA37B107D9F722E0A8
:10012000AAE7B1E001C01D92A834B207E1F710E0E0
:10013000CEE7D0E004C02197FE010E94EE0ACD3741
:10014000D107C9F70E9439060C94F40A0C940000F8
:10015000AF92BF92CF92DF92EF92FF920F931F93D5
:10016000CF93DF936C017B018B01040F151FEB0113
:100170005E01AE18BF08C017D10759F06991D601CA
:10018000ED91FC910190F081E02DC6010995892B3C
:1001900079F7C501DF91CF911F910F91FF90EF90FB
:1001A000DF90CF90BF90AF900895FC01538D448DA8
:1001B000252F30E0842F90E0821B930B541710F012
:1001C000CF96089501970895FC01918D828D98171F
:1001D00061F0A28DAE0FBF2FB11D5D968C91928DF7
:1001E0009F5F9F73928F90E008958FEF9FEF089528
:1001F000FC01918D828D981731F0828DE80FF11DF1
:10020000858D90E008958FEF9FEF0895FC01918D0B
:10021000228D892F90E0805C9F4F821B91098F7304
:100220009927089585E891E00E94060121E0892B35
:1002300009F420E0822F089580E090E0892B29F0D6
:100240000E94120181110C9400000895FC01A48DFC
:10025000A80FB92FB11DA35ABF4F2C91848D90E0E8
:1002600001968F739927848FA689B7892C93A089CB
:10027000B1898C91837080648C93938D848D981355
:1002800006C00288F389E02D80818F7D80830895E8
:10029000EF92FF920F931F93CF93DF93EC0181E0D6
:1002A000888F9B8D8C8D98131AC0E889F98980817D
:1002B00085FF15C09FB7F894EE89FF896083E889B0
:1002C000F98980818370806480839FBF81E090E0A2
:1002D000DF91CF911F910F91FF90EF900895F62E2F
:1002E0000B8D10E00F5F1F4F0F731127E02E8C8DC9
:1002F0008E110CC00FB607FCFACFE889F98980810E
:1003000085FFF5CFCE010E942601F1CFEB8DEC0FDA
:10031000FD2FF11DE35AFF4FF0829FB7F8940B8F2A
:10032000EA89FB8980818062CFCF0F931F93CF939F
:10033000DF938C01D0E0C0E0F801EC0FFD1F649169
:10034000662341F085E891E00E944801892B11F075
:100350002196F2CFCE01DF91CF911F910F91089599
:10036000CF93DF93EC01888D8823B9F0AA89BB89EC
:10037000E889F9898C9185FD03C0808186FD0DC0D7
:100380000FB607FCF7CF8C9185FFF2CF808185FFF8
:10039000EDCFCE010E942601E9CFDF91CF910895E4
:1003A00090E0FC01E458FF4F2491FC01E553FF4F1E
:1003B0003491FC01E954FF4FE491EE23C9F022236C
:1003C00039F0233001F1A8F4213019F1223029F15C
:1003D000F0E0EE0FFF1FEE58FF4FA591B4918FB7DD
:1003E000F894EC91611126C030953E233C938FBF69
:1003F00008952730A9F02830C9F0243049F78091BA
:1004000080008F7D03C0809180008F778093800073
:10041000DFCF84B58F7784BDDBCF84B58F7DFBCFF5
:100420008091B0008F778093B000D2CF8091B000E0
:100430008F7DF9CF3E2BDACFCF93DF9390E0FC0195
:10044000E553FF4F249189549F4FFC0184918823E9
:10045000D1F090E0880F991FFC01E859FF4FA5915A
:10046000B491FC01EE58FF4FC591D49161110EC0BB
:100470009FB7F8948C91E22FE0958E238C9328817E
:10048000E223E8839FBFDF91CF9108958FB7F8945F
:10049000EC91E22BEC938FBFF6CF3FB7F8948091AD
:1004A0007F0190918001A0918101B091820126B5D8
:1004B000A89B05C02F3F19F00196A11DB11D3FBF9C
:1004C000BA2FA92F982F8827BC01CD01620F711D6B
:1004D000811D911D42E0660F771F881F991F4A9565
:1004E000D1F70895089590E080E008950F931F9349
:1004F0004FB7F89400917B0110917C0120917D0110
:1005000030917E014FBF600F711F821F931F4FB745
:10051000F89400917B0110917C0120917D01309134
:100520007E014FBF061717072807390780F31F9171
:100530000F910895CF93DF93EC0160E08E810E94CC
:10054000D00161E08E810E94D00160E08E810E9426
:10055000D0018BE891E00197F1F7DF91CF910895F9
:10056000CF92DF92EF92FF920F931F93CF93DF937F
:100570006C017C0187E0E80EF11CD0E0C0E0062FA2
:1005800010E0B8010C2E02C0759567950A94E2F749
:100590006170F70181917F010E94D0012196C430E2
:1005A000D10579F7C601DF91CF911F910F91FF908F
:1005B000EF90DF90CF900C949A02CF92DF92EF925F
:1005C000FF920F931F93CF93DF93EC01F62E642FCE
:1005D0008C810E94D0018D818F3F19F060E00E94D4
:1005E000D0010F2D10E08F8584FF25C06E0187E0BC
:1005F000C80ED11CF12CE12CB8010E2C02C075954F
:1006000067950A94E2F76170F60181916F010E948B
:10061000D001FFEFEF1AFF0A88E0E816F10461F756
:10062000CE01DF91CF911F910F91FF90EF90DF905E
:10063000CF900C949A02B80184E0759567958A95DD
:10064000E1F7CE010E94B0026F2DCE01DF91CF9174
:100650001F910F91FF90EF90DF90CF900C94B0021C
:1006600040E0682F80E392E00C94DD0281E00E947C
:1006700030038BE39FE10197F1F70895CF93DF9368
:10068000823029F490913F02986090933F028093CA
:1006900043021092440280E48093450280E18093FB
:1006A000460280E58093470261E0809134020E9417
:1006B0001C02809135028F3F19F061E00E941C02FC
:1006C00061E0809136020E941C02C0E3D2E09E01EC
:1006D0002053324080913F0284FD0BC084E090E0C3
:1006E00021962817390744F461E08E810E941C028C
:1006F000EECF88E090E0F4CF8BE39DE00197F1F737
:1007000060E0809134020E94D00160E08091360266
:100710000E94D001809135028F3F19F060E00E9465
:10072000D00180913F0284FD34C063E080E392E019
:100730000E94B002CBE4D6E4CE010197F1F763E06A
:1007400080E392E00E94B0022197F1F763E080E33A
:1007500092E00E94B00283E592E00197F1F762E037
:1007600080E392E00E94B00280913F0280620E948A
:10077000300384E0809340028CE00E9430030E94AA
:10078000360382E08093410286E0DF91CF910C94A2
:10079000300380620E9430038BE496E40197F1F706
:1007A00080913F0280620E94300383E592E00197CE
:1007B000F1F780913F0280620E943003D5CF909183
:1007C0004302891710F08FEF890FE82FF0E0E05D0A
:1007D000FD4F848980680C94300341E00E94DD0263
:1007E00081E090E00895FB0101900020E9F7319746
:1007F000AF01461B570BDC01ED91FC910280F381A8
:10080000E02D09948F929F92AF92BF92EF92FF9248
:100810000F931F93CF93DF93CDB7DEB7A1970FB69A
:10082000F894DEBF0FBECDBF7C01FA01CB0119A247
:10083000223008F42AE08E010F5D1F4F822E912C8A
:10084000B12CA12CBF01A50194010E949008F901CF
:10085000CA016A300CF5605DD8016E938D01232BBF
:10086000242B252B79F790E080E0109721F0BD0133
:10087000C7010E94F303A1960FB6F894DEBF0FBE26
:10088000CDBFDF91CF911F910F91FF90EF90BF905F
:10089000AF909F908F900895695CDECF2F923F922A
:1008A0004F925F926F927F928F929F92AF92BF9280
:1008B000CF92DF92EF92FF921F93CF93DF93EC01E1
:1008C0006A017B01722EAB019601CB01B6010E9439
:1008D000E90A6FE171E0811126C046015701E894F1
:1008E000B7F82FEF3FEF4FE75FE7C501B4010E9474
:1008F000E90A81110CC02FEF3FEF4FE75FE7C50119
:10090000B4010E941F0963E271E0181664F02FEF32
:100910003FEF4FE75FE4C701B6010E94770A181660
:10092000B4F467E271E0CE01DF91CF911F91FF90A7
:10093000EF90DF90CF90BF90AF909F908F907F907F
:100940006F905F904F903F902F900C94F3032FEF98
:100950003FEF4FE75FECC701B6010E941F0987FD1B
:10096000E0CF20E030E0A901C701B6010E941F09D5
:10097000312C212C87FF0DC0E881F9810190F08195
:10098000E02D6DE2CE0109951C01F7FAF094F7F81D
:10099000F09410E060E070E080E09FE3711641F0B9
:1009A00020E030E040E251E40E9424091F5FF6CFCE
:1009B000A70196010E94B3082B013C010E949609F1
:1009C0004B015C012AE0BC01A401CE010E9402049B
:1009D0007C01E20CF31C1123E1F1C501B4010E947A
:1009E000C5099B01AC01C301B2010E94B2084B01D1
:1009F0005C01E881F9810190F081E02D6EE2CE0189
:100A00000995E80EF91E115020F120E030E040E297
:100A100051E4C501B4010E947C0A2B013C010E94F3
:100A200096094B01B12CA12C2AE0B501A401CE01FD
:100A30000E940204E80EF91EC501B4010E94C50916
:100A40009B01AC01C301B2010E94B2084B015C01E1
:100A5000DACFC701DF91CF911F91FF90EF90DF9028
:100A6000CF90BF90AF909F908F907F906F905F904E
:100A70004F903F902F9008951F920F920FB60F92B4
:100A800011242F933F934F935F936F937F938F9393
:100A90009F93AF93BF93EF93FF9385E891E00E94FC
:100AA0002601FF91EF91BF91AF919F918F917F911F
:100AB0006F915F914F913F912F910F900FBE0F90CB
:100AC0001F9018951F920F920FB60F9211242F931B
:100AD0008F939F93EF93FF93E0919501F09196018F
:100AE0008081E0919B01F0919C0182FD1BC090816F
:100AF00080919E018F5F8F7320919F01821741F03B
:100B0000E0919E01F0E0EB57FE4F958F80939E01A0
:100B1000FF91EF919F918F912F910F900FBE0F90AA
:100B20001F9018958081F4CF1F920F920FB60F92ED
:100B300011242F933F938F939F93AF93BF938091F3
:100B40007B0190917C01A0917D01B0917E0130915B
:100B50007A0123E0230F2D3758F50196A11DB11D11
:100B600020937A0180937B0190937C01A0937D0177
:100B7000B0937E0180917F0190918001A0918101CD
:100B8000B09182010196A11DB11D80937F019093C8
:100B90008001A0938101B0938201BF91AF919F9199
:100BA0008F913F912F910F900FBE0F901F9018952E
:100BB00026E8230F0296A11DB11DD2CFE5E8F1E092
:100BC0001382128288EE93E0A0E0B0E084839583E4
:100BD000A683B78385E091E09183808385EC90E0E4
:100BE0009587848784EC90E09787868780EC90E0F7
:100BF000918B808B81EC90E0938B828B82EC90E0E8
:100C0000958B848B86EC90E0978B868B118E128E61
:100C1000138E148EE0E3F2E01382128287E191E0FA
:100C2000918380838CE084838FEF85838BE0868340
:100C300085E0878384E0808783E0818782E0828704
:100C40001386148615861686178681E00E943E0359
:100C5000E2E2F2E080E090ECA9E7B4EC81879287D1
:100C6000A387B48785839683A783B08787E085872A
:100C70000895789484B5826084BD84B5816084BD14
:100C800085B5826085BD85B5816085BD80916E002A
:100C9000816080936E00109281008091810082605B
:100CA0008093810080918100816080938100809198
:100CB00080008160809380008091B1008460809387
:100CC000B1008091B00081608093B00080917A0083
:100CD000846080937A0080917A00826080937A00A9
:100CE00080917A00816080937A0080917A00806898
:100CF00080937A001092C100E0919501F0919601E5
:100D000082E08083E0919101F09192011082E09164
:100D10009301F09194018FEC808310929D01E091FA
:100D20009901F0919A0186E08083E0919701F0911A
:100D30009801808180618083E0919701F091980112
:100D4000808188608083E0919701F0919801808193
:100D500080688083E0919701F091980180818F7D78
:100D6000808382E00E943E030E9436035BE9252EC9
:100D7000312C412C60EC562E69E7662E64EC762E01
:100D80008091830190918401892B09F06EC10E94AA
:100D9000360380910001882309F49EC1C0912F027F
:100DA0008C2F90E0FC01E553FF4FD491FC01E954F6
:100DB000FF4FE491F0E0EE0FFF1FE355FF4F059169
:100DC0001491109222021092230210922402109287
:100DD00025021092260261E00E941C0260E08C2F26
:100DE0000E94D0010E944D024B015C0142E1C42EE1
:100DF000D12CE12CF12C0E944D02681979098A0945
:100E00009B09683E734081059105A8F321E0C21A51
:100E1000D108E108F10888EE880E83E0981EA11C35
:100E2000B11CC114D104E104F10429F761E08C2F55
:100E30000E94D001C1010197F1F760E08C2F0E9460
:100E40001C0280E991E0F80120812D23A1F4019793
:100E5000D1F74092270250922802609229027092A4
:100E60002A0240922B0250922C0260922D02709224
:100E70002E02CEEFDFC080E991E0F80120812D2322
:100E800019F00197D1F7E5CF98E2A92E20E8B22E0C
:100E9000912C80E991E0F80120812D2319F401972C
:100EA000D1F7D7CF0E944D026B017C0180E991E020
:100EB000F80120812D2319F00197D1F7CACF0E94A4
:100EC0004D026C197D098E099F09693271058105F2
:100ED000910538F0E92DF0E0EE5DFD4F80818B2922
:100EE0008083B69419F4939480E8B82EAA94A11044
:100EF000D0CF61E08C2F0E941C0261E08C2F0E94F9
:100F0000D001C09122026C2F70E090E080E00E943E
:100F1000C509609327027093280280932902909359
:100F20002A02D09124026D2F70E090E080E00E94B0
:100F3000C50960932B0270932C0280932D0290932D
:100F40002E02CD0F80912302C80F80912502C80F79
:100F500080912602C8136DC08DE990E00E94950132
:100F600040912B0250912C0260912D0270912E0223
:100F700022E085E891E00E944E046BE271E085E892
:100F800091E00E94F30380E990E00E949501409176
:100F90002702509128026091290270912A0222E0D2
:100FA00085E891E00E944E046BE271E085E891E0F3
:100FB0000E94F30380E00E94DF036EE271E080E3B1
:100FC00092E00E94F30340912B0250912C02609119
:100FD0002D0270912E0222E080E392E00E944E04E6
:100FE00041E06FED80E392E00E94DD0265E371E095
:100FF00080E392E00E94F30381E00E94DF0367E355
:1010000071E080E392E00E94F30340912702509147
:1010100028026091290270912A0222E080E392E086
:101020000E944E0462E471E080E392E00E94F303C8
:101030001CC0CFEF80E00E94DF0364E471E080E336
:1010400092E00E94F30381E00E94DF0362E571E019
:1010500080E392E00E94F3034C2F50E070E060E0E8
:101060002AE080E392E00E94020480918301909143
:101070008401833091050CF048C00196909384015F
:101080008093830180914002982F94609093400256
:101090008C600E94300360ED77E080E090E00E9479
:1010A0007602809140028B7F8093400288600E948C
:1010B000300368EE73E080E090E00E94760280E00A
:1010C00090E0892B09F45CCE0E941201882309F478
:1010D00057CE0E94000054CE8FED90E00E94950103
:1010E0006BE271E085E891E00E94F30380E00E94EA
:1010F000DF036EE571E080E392E00E94F30381E09C
:101100000E94DF036BE671E08FCF10928401109292
:1011100083018091000191E0892780930001B2CF83
:10112000A1E21A2EAA1BBB1BFD010DC0AA1FBB1FEB
:10113000EE1FFF1FA217B307E407F50720F0A21B5D
:10114000B30BE40BF50B661F771F881F991F1A94CA
:1011500069F760957095809590959B01AC01BD01F4
:10116000CF0108955058BB27AA270E94CA080C94A3
:101170003D0A0E942F0A38F00E94360A20F039F406
:101180009F3F19F426F40C942C0A0EF4E095E7FB2B
:101190000C94260AE92F0E944E0A58F3BA176207E8
:1011A00073078407950720F079F4A6F50C94700A6C
:1011B0000EF4E0950B2EBA2FA02D0B01B901900172
:1011C0000C01CA01A0011124FF27591B99F0593FB6
:1011D00050F4503E68F11A16F040A22F232F342FFE
:1011E0004427585FF3CF469537952795A795F0404C
:1011F0005395C9F77EF41F16BA0B620B730B840B61
:10120000BAF09150A1F0FF0FBB1F661F771F881F18
:10121000C2F70EC0BA0F621F731F841F48F4879570
:1012200077956795B795F7959E3F08F0B0CF939562
:10123000880F08F09927EE0F9795879508950E94DB
:10124000020A08F481E008950E9438090C943D0ACE
:101250000E94360A58F00E942F0A40F029F45F3F9E
:1012600029F00C94260A51110C94710A0C942C0A42
:101270000E944E0A68F39923B1F3552391F3951B0D
:10128000550BBB27AA2762177307840738F09F5FA7
:101290005F4F220F331F441FAA1FA9F335D00E2E14
:1012A0003AF0E0E832D091505040E695001CCAF781
:1012B0002BD0FE2F29D0660F771F881FBB1F261744
:1012C00037074807AB07B0E809F0BB0B802DBF011B
:1012D000FF2793585F4F3AF09E3F510578F00C94EA
:1012E000260A0C94710A5F3FE4F3983ED4F3869586
:1012F00077956795B795F7959F5FC9F7880F911D0B
:101300009695879597F90895E1E0660F771F881FF6
:10131000BB1F621773078407BA0720F0621B730BA9
:10132000840BBA0BEE1F88F7E09508950E94560AC9
:1013300088F09F5798F0B92F9927B751B0F0E1F096
:10134000660F771F881F991F1AF0BA95C9F714C046
:10135000B13091F00E94700AB1E008950C94700AC7
:10136000672F782F8827B85F39F0B93FCCF386957F
:1013700077956795B395D9F73EF4909580957095DC
:1013800061957F4F8F4F9F4F0895E89409C097FB59
:101390003EF490958095709561957F4F8F4F9F4F4C
:1013A0009923A9F0F92F96E9BB279395F695879590
:1013B00077956795B795F111F8CFFAF4BB0F11F453
:1013C00060FF1BC06F5F7F4F8F4F9F4F16C08823FA
:1013D00011F096E911C0772321F09EE8872F762F30
:1013E00005C0662371F096E8862F70E060E02AF071
:1013F0009A95660F771F881FDAF7880F969587955D
:1014000097F90895990F0008550FAA0BE0E8FEEF31
:1014100016161706E807F907C0F012161306E407B8
:10142000F50798F0621B730B840B950B39F40A26B1
:1014300061F0232B242B252B21F408950A2609F48F
:10144000A140A6958FEF811D811D089597F99F6793
:1014500080E870E060E008959FEF80EC089500243C
:101460000A941616170618060906089500240A9409
:1014700012161306140605060895092E0394000C8F
:1014800011F4882352F0BB0F40F4BF2B11F460FF1E
:1014900004C06F5F7F4F8F4F9F4F089557FD905847
:1014A000440F551F59F05F3F71F04795880F97FB28
:1014B000991F61F09F3F79F08795089512161306E2
:1014C0001406551FF2CF4695F1DF08C01616170611
:1014D0001806991FF1CF8695710561050894089546
:1014E000E894BB2766277727CB0197F908950E94D8
:1014F000020A08F48FEF08950E948F0A0C943D0AA7
:101500000E942F0A38F00E94360A20F0952311F02D
:101510000C94260A0C942C0A11240C94710A0E9433
:101520004E0A70F3959FC1F3950F50E0551F629FCF
:10153000F001729FBB27F00DB11D639FAA27F00D2C
:10154000B11DAA1F649F6627B00DA11D661F829F53
:101550002227B00DA11D621F739FB00DA11D621F38
:10156000839FA00D611D221F749F3327A00D611D55
:10157000231F849F600D211D822F762F6A2F112437
:101580009F5750409AF0F1F088234AF0EE0FFF1F6A
:10159000BB1F661F771F881F91505040A9F79E3FC1
:1015A000510580F00C94260A0C94710A5F3FE4F315
:1015B000983ED4F3869577956795B795F795E79517
:1015C0009F5FC1F7FE2B880F911D9695879597F920
:1015D00008950E94020A880B990B0895EE0FFF1FD1
:0C15E0000590F491E02D0994F894FFCFE1
:1015EC0001000000004801A800D500B0010601E48C
:1015FC0000F80000000000ED03A800730272026EF8
:10160C00616E00696E66006F7666000D0A005465A7
:10161C006D703A2000430048756D69646974793ABD
:10162C002000250044485431313A204572726575CA
:10163C00720044485431313A20436F64650042696A
:10164C00656E76656E75652061750047504137385B
:0A165C0038204F432F496F5400005F
:00000001FF
