:020000040000FA
:100000000C947E000C94A6000C94A6000C94A60000
:100010000C94A6000C94A6000C94A6000C94A600C8
:100020000C94A6000C94A6000C94A6000C94A600B8
:100030000C94A6000C94A6000C94A6000C94A600A8
:100040000C9493050C94A6000C9461050C943B054C
:100050000C94A6000C94A6000C94A6000C94A60088
:100060000C94A6000C94A6000000000024002700B9
:100070002A0000000000250028002B0000000008D6
:10008000000201000003040700000000000000005F
:1000900048756D69646974C3A9203D200054656D7D
:1000A00070C3A9726174757265203D200000000064
:1000B00000230026002900040404040404040402AC
:1000C00002020202020303030303030102040810F5
:1000D0002040800102040810200102040810204280
:1000E00069656E76656E756520617520475041378C
:1000F0003838204F432F496F5400DD0511241FBEAF
:10010000CFEFD8E0DEBFCDBF11E0A0E0B1E0E0ED81
:10011000F5E102C005900D92AA37B107D9F722E0A8
:10012000AAE7B1E001C01D92A734B207E1F710E0E1
:10013000CEE7D0E004C02197FE010E94E00ACD374F
:10014000D107C9F70E9427060C94E60A0C94000018
:10015000DC01ED91FC910190F081E02D0994AF92CA
:10016000BF92CF92DF92EF92FF920F931F93CF93A4
:10017000DF936C017B018B01040F151FEB015E0106
:10018000AE18BF08C017D10759F06991D601ED919B
:10019000FC910190F081E02DC6010995892B79F73A
:1001A000C501DF91CF911F910F91FF90EF90DF90EC
:1001B000CF90BF90AF900895FC01538D448D252FB3
:1001C00030E0842F90E0821B930B541710F0CF96F1
:1001D000089501970895FC01918D828D981761F023
:1001E000A28DAE0FBF2FB11D5D968C91928D9F5F3A
:1001F0009F73928F90E008958FEF9FEF0895FC0119
:10020000918D828D981731F0828DE80FF11D858DCB
:1002100090E008958FEF9FEF0895FC01918D228D5E
:10022000892F90E0805C9F4F821B91098F739927E3
:10023000089582E991E00E940D0121E0892B09F4E3
:1002400020E0822F089580E090E0892B29F00E9421
:10025000190181110C9400000895FC01A48DA80FD0
:10026000B92FB11DA35ABF4F2C91848D90E00196F8
:100270008F739927848FA689B7892C93A089B18918
:100280008C91837080648C93938D848D981306C0B9
:100290000288F389E02D80818F7D80830895EF921D
:1002A000FF920F931F93CF93DF93EC0181E0888F30
:1002B0009B8D8C8D98131AC0E889F989808185FF00
:1002C00015C09FB7F894EE89FF896083E889F989A2
:1002D00080818370806480839FBF81E090E0DF91A4
:1002E000CF911F910F91FF90EF900895F62E0B8DF7
:1002F00010E00F5F1F4F0F731127E02E8C8D8E11B2
:100300000CC00FB607FCFACFE889F989808185FF18
:10031000F5CFCE010E942D01F1CFEB8DEC0FFD2F1B
:10032000F11DE35AFF4FF0829FB7F8940B8FEA89D3
:10033000FB8980818062CFCF0F931F93CF93DF9390
:100340008C01D0E0C0E0F801EC0FFD1F6491662342
:1003500041F082E991E00E944F01892B11F0219632
:10036000F2CFCE01DF91CF911F910F910895CF93DE
:10037000DF93EC01888D8823B9F0AA89BB89E889CD
:10038000F9898C9185FD03C0808186FD0DC00FB673
:1003900007FCF7CF8C9185FFF2CF808185FFEDCFF1
:1003A000CE010E942D01E9CFDF91CF91089590E019
:1003B000FC01E458FF4F2491FC01E553FF4F3491B9
:1003C000FC01E954FF4FE491EE23C9F0222339F0F8
:1003D000233001F1A8F4213019F1223029F1F0E0A5
:1003E000EE0FFF1FEE58FF4FA591B4918FB7F89411
:1003F000EC91611126C030953E233C938FBF089548
:100400002730A9F02830C9F0243049F780918000C6
:100410008F7D03C0809180008F7780938000DFCF35
:1004200084B58F7784BDDBCF84B58F7DFBCF809182
:10043000B0008F778093B000D2CF8091B0008F7DD5
:10044000F9CF3E2BDACFCF93DF9390E0FC01E55359
:10045000FF4F249189549F4FFC0184918823D1F050
:1004600090E0880F991FFC01E859FF4FA591B491C6
:10047000FC01EE58FF4FC591D49161110EC09FB79A
:10048000F8948C91E22FE0958E238C932881E223BF
:10049000E8839FBFDF91CF9108958FB7F894EC91D7
:1004A000E22BEC938FBFF6CF3FB7F89480917F019A
:1004B00090918001A0918101B091820126B5A89B05
:1004C00005C02F3F19F00196A11DB11D3FBFBA2FE6
:1004D000A92F982F8827BC01CD01620F711D811DA6
:1004E000911D42E0660F771F881F991F4A95D1F72B
:1004F0000895089590E080E008950F931F934FB7FB
:10050000F89400917B0110917C0120917D01309144
:100510007E014FBF600F711F821F931F4FB7F8946A
:1005200000917B0110917C0120917D0130917E0131
:100530004FBF061717072807390780F31F910F9140
:100540000895CF93DF93EC0160E08E810E94D70184
:1005500061E08E810E94D70160E08E810E94D70108
:100560008BE891E00197F1F7DF91CF910895CF9259
:10057000DF92EF92FF920F931F93CF93DF936C0163
:100580007C0187E0E80EF11CD0E0C0E0062F10E00F
:10059000B8010C2E02C0759567950A94E2F7617058
:1005A000F70181917F010E94D7012196C430D105C6
:1005B00079F7C601DF91CF911F910F91FF90EF90D6
:1005C000DF90CF900C94A102CF92DF92EF92FF9236
:1005D0000F931F93CF93DF93EC01F62E642F8C8142
:1005E0000E94D7018D818F3F19F060E00E94D701F2
:1005F0000F2D10E08F8584FF25C06E0187E0C80EA7
:10060000D11CF12CE12CB8010E2C02C07595679518
:100610000A94E2F76170F60181916F010E94D7019F
:10062000FFEFEF1AFF0A88E0E816F10461F7CE0148
:10063000DF91CF911F910F91FF90EF90DF90CF90BE
:100640000C94A102B80184E0759567958A95E1F74D
:10065000CE010E94B7026F2DCE01DF91CF911F9185
:100660000F91FF90EF90DF90CF900C94B70240E095
:10067000682F8FE292E00C94E40281E00E9437033D
:100680008BE39FE10197F1F70895CF93DF938230D9
:1006900029F490913E02986090933E02809342022A
:1006A0001092430280E48093440280E180934502EB
:1006B00080E58093460261E0809133020E9423022C
:1006C000809134028F3F19F061E00E94230261E0C3
:1006D000809135020E942302CFE2D2E09E012F5288
:1006E000324080913E0284FD0BC084E090E0219670
:1006F0002817390744F461E08E810E942302EECF6F
:1007000088E090E0F4CF8BE39DE00197F1F760E0A3
:10071000809133020E94D70160E0809135020E94EF
:10072000D701809134028F3F19F060E00E94D70119
:1007300080913E0284FD34C063E08FE292E00E942B
:10074000B702CBE4D6E4CE010197F1F763E08FE284
:1007500092E00E94B7022197F1F763E08FE292E006
:100760000E94B70283E592E00197F1F762E08FE221
:1007700092E00E94B70280913E0280620E9437039D
:1007800084E080933F028CE00E9437030E943D0387
:1007900082E08093400286E0DF91CF910C94370392
:1007A00080620E9437038BE496E40197F1F7809111
:1007B0003E0280620E94370383E592E00197F1F7E1
:1007C00080913E0280620E943703D5CF9091420211
:1007D000891710F08FEF890FE82FF0E0E15DFD4FF2
:1007E000848980680C94370341E00E94E40281E030
:1007F00090E00895FB0101900020E9F73197AF01E7
:10080000461B570BDC01ED91FC910280F381E02D3A
:1008100009948F929F92AF92BF92EF92FF920F93A3
:100820001F93CF93DF93CDB7DEB7A1970FB6F894A0
:10083000DEBF0FBECDBF7C01FA01CB0119A2223071
:1008400008F42AE08E010F5D1F4F822E912CB12CEF
:10085000A12CBF01A50194010E948208F901CA01DF
:100860006A300CF5605DD8016E938D01232B242B2B
:10087000252B79F790E080E0109721F0BD01C701AA
:100880000E94FA03A1960FB6F894DEBF0FBECDBF4B
:10089000DF91CF911F910F91FF90EF90BF90AF909C
:1008A0009F908F900895695CDECF2F923F924F9278
:1008B0005F926F927F928F929F92AF92BF92CF92F0
:1008C000DF92EF92FF921F93CF93DF93EC016A01C7
:1008D0007B01722EAB019601CB01B6010E94DB0AAF
:1008E0006FE171E0811126C046015701E894B7F825
:1008F0002FEF3FEF4FE75FE7C501B4010E94DB0A2E
:1009000081110CC02FEF3FEF4FE75FE7C501B40146
:100910000E94110963E271E0181664F02FEF3FEFB7
:100920004FE75FE4C701B6010E94690A1816B4F4E4
:1009300067E271E0CE01DF91CF911F91FF90EF90C0
:10094000DF90CF90BF90AF909F908F907F906F90EF
:100950005F904F903F902F900C94FA032FEF3FEF52
:100960004FE75FECC701B6010E94110987FDE0CF98
:1009700020E030E0A901C701B6010E941109312C25
:10098000212C87FF09C06DE2CE010E94A8001C0146
:10099000F7FAF094F7F8F09410E060E070E080E08F
:1009A0009FE3711641F020E030E040E251E40E9404
:1009B00016091F5FF6CFA70196010E94A5082B011B
:1009C0003C010E9488094B015C012AE0BC01A401A2
:1009D000CE010E9409047C01E20CF31C1123C1F139
:1009E000C501B4010E94B7099B01AC01C301B2016A
:1009F0000E94A4084B015C016EE2CE010E94A80097
:100A0000E80EF91E115020F120E030E040E251E400
:100A1000C501B4010E946E0A2B013C010E948809A5
:100A20004B01B12CA12C2AE0B501A401CE010E94FA
:100A30000904E80EF91EC501B4010E94B7099B0123
:100A4000AC01C301B2010E94A4084B015C01DACFE2
:100A5000C701DF91CF911F91FF90EF90DF90CF9072
:100A6000BF90AF909F908F907F906F905F904F90CE
:100A70003F902F9008951F920F920FB60F9211245E
:100A80002F933F934F935F936F937F938F939F9396
:100A9000AF93BF93EF93FF9382E991E00E942D0102
:100AA000FF91EF91BF91AF919F918F917F916F9146
:100AB0005F914F913F912F910F900FBE0F901F901C
:100AC00018951F920F920FB60F9211242F938F93A8
:100AD0009F93EF93FF93E091A201F091A301808196
:100AE000E091A801F091A90182FD1BC09081809145
:100AF000AB018F5F8F732091AC01821741F0E091C1
:100B0000AB01F0E0EE56FE4F958F8093AB01FF9165
:100B1000EF919F918F912F910F900FBE0F901F908B
:100B200018958081F4CF1F920F920FB60F92112467
:100B30002F933F938F939F93AF93BF9380917B01AC
:100B400090917C01A0917D01B0917E0130917A015C
:100B500023E0230F2D3758F50196A11DB11D2093D9
:100B60007A0180937B0190937C01A0937D01B093E7
:100B70007E0180917F0190918001A0918101B091CF
:100B800082010196A11DB11D80937F019093800188
:100B9000A0938101B0938201BF91AF919F918F91FA
:100BA0003F912F910F900FBE0F901F90189526E840
:100BB000230F0296A11DB11DD2CFE2E9F1E013820D
:100BC000128288EE93E0A0E0B0E084839583A68350
:100BD000B78385E091E09183808385EC90E09587F1
:100BE000848784EC90E09787868780EC90E0918BF7
:100BF000808B81EC90E0938B828B82EC90E0958BE4
:100C0000848B86EC90E0978B868B118E128E138EE0
:100C1000148EEFE2F2E01382128287E191E0918379
:100C200080838CE084838FEF85838BE0868385E0EF
:100C3000878384E0808783E0818782E082871386D0
:100C4000148615861686178681E00C9445037894E1
:100C500084B5826084BD84B5816084BD85B58260C1
:100C600085BD85B5816085BD80916E008160809372
:100C70006E001092810080918100826080938100DB
:100C800080918100816080938100809180008160EB
:100C9000809380008091B10084608093B100809146
:100CA000B00081608093B00080917A00846080936E
:100CB0007A0080917A00826080937A0080917A0035
:100CC000816080937A0080917A00806880937A00B6
:100CD0001092C100E091A201F091A30182E0808313
:100CE000E0919E01F0919F011082E091A001F091AE
:100CF000A1018FEC80831092AA01E091A601F091EE
:100D0000A70186E08083E091A401F091A501808194
:100D100080618083E091A401F091A50180818860C9
:100D20008083E091A401F091A50180818068808397
:100D3000E091A401F091A50180818F7D808382E004
:100D40000E9445030E943D030BE910E0412C50EC4A
:100D5000552E59E7652E54EC752E80919001909197
:100D60009101892B09F073C10E943D03809100011C
:100D7000882309F4A3C1E2EDF0E03490EEEBF0E05B
:100D80008491E82FF0E0EE0FFF1FE355FF4FC59170
:100D9000D49110928B0110928C0110928D011092BF
:100DA0008E0110928F0161E087E00E94230260E0D3
:100DB00087E00E94D7010E9454026B017C0142E14E
:100DC000842E912CA12CB12C0E9454026C197D0907
:100DD0008E099F09683E734081059105A8F3F1E0F3
:100DE0008F1A9108A108B10828EEC20E23E0D21E86
:100DF000E11CF11C81149104A104B10429F761E004
:100E000087E00E94D701C8010197F1F760E087E011
:100E10000E94230280E991E028812321A9F401970F
:100E2000D9F74092830150928401609285017092BB
:100E300086014092870150928801609289017092E8
:100E40008A01CEEFDFEFDCC080E991E02881232129
:100E500019F00197D9F7E5CF98E2A92E20E8B22E34
:100E6000912C80E991E02881232119F40197D9F789
:100E7000D8CF0E9454026B017C0180E991E0288167
:100E8000232119F00197D9F7CCCF0E9454026C1995
:100E90007D098E099F09693271058105910538F038
:100EA000E92DF0E0ED57FE4F80858B298087B694C1
:100EB00019F4939480E8B82EAA94A110D2CF61E0DF
:100EC00087E00E94230261E087E00E94D701C09181
:100ED0008B016C2F70E090E080E00E94B709609376
:100EE0008301709384018093850190938601D09152
:100EF0008D016D2F70E090E080E00E94B709609353
:100F00008701709388018093890190938A01CD0FA6
:100F100080918C01C80F80918E01C80F80918F0144
:100F2000C8136CC08DE990E00E949C01409187013C
:100F3000509188016091890170918A0122E082E9D3
:100F400091E00E9455046BE271E082E991E00E9419
:100F5000FA0380E990E00E949C0140918301509146
:100F60008401609185017091860122E082E991E01F
:100F70000E9455046BE271E082E991E00E94FA035D
:100F800080E00E94E6036EE271E08FE292E00E9450
:100F9000FA03409187015091880160918901709115
:100FA0008A0122E08FE292E00E9455046FED8FE209
:100FB00092E00E94A80065E371E08FE292E00E9457
:100FC000FA0381E00E94E60367E371E08FE292E0BA
:100FD0000E94FA0340918301509184016091850140
:100FE0007091860122E08FE292E00E94550462E453
:100FF00071E08FE292E00E94FA0329C0CFEFDFEFA9
:1010000080E00E94E60364E471E08FE292E00E94D7
:10101000FA0381E00E94E60362E571E08FE292E06C
:101020000E94FA036DE28FE292E00E94A800AE01F6
:10103000DD0F660B770B70956095509541955F4F6E
:101040006F4F7F4F2AE08FE292E00E940904809167
:10105000900190919101833091050CF048C0019668
:10106000909391018093900180913F02982F94601A
:1010700090933F028C600E94370360ED77E080E040
:1010800090E00E947D0280913F028B7F80933F021F
:1010900088600E94370368EE73E080E090E00E9471
:1010A0007D0280E090E0892B09F457CE0E9419015F
:1010B000882309F452CE0E9400004FCE8FED90E0BD
:1010C0000E949C016BE271E082E991E00E94FA03C8
:1010D00080E00E94E6036EE571E08FE292E00E94FC
:1010E000FA0381E00E94E6036BE671E082CF109282
:1010F0009101109290018091000191E089278093E5
:101100000001B2CFA1E21A2EAA1BBB1BFD010DC02C
:10111000AA1FBB1FEE1FFF1FA217B307E407F507A7
:1011200020F0A21BB30BE40BF50B661F771F881F83
:10113000991F1A9469F760957095809590959B0119
:10114000AC01BD01CF0108955058BB27AA270E94CA
:10115000BC080C942F0A0E94210A38F00E94280A29
:1011600020F039F49F3F19F426F40C941E0A0EF473
:10117000E095E7FB0C94180AE92F0E94400A58F307
:10118000BA17620773078407950720F079F4A6F56C
:101190000C94620A0EF4E0950B2EBA2FA02D0B01D1
:1011A000B90190010C01CA01A0011124FF27591BAC
:1011B00099F0593F50F4503E68F11A16F040A22FB2
:1011C000232F342F4427585FF3CF46953795279523
:1011D000A795F0405395C9F77EF41F16BA0B620B22
:1011E000730B840BBAF09150A1F0FF0FBB1F661F69
:1011F000771F881FC2F70EC0BA0F621F731F841FAC
:1012000048F4879577956795B795F7959E3F08F0D1
:10121000B0CF9395880F08F09927EE0F9795879593
:1012200008950E94F40908F481E008950E942A09B3
:101230000C942F0A0E94280A58F00E94210A40F0BC
:1012400029F45F3F29F00C94180A51110C94630A99
:101250000C941E0A0E94400A68F39923B1F35523A7
:1012600091F3951B550BBB27AA27621773078407B9
:1012700038F09F5F5F4F220F331F441FAA1FA9F34F
:1012800035D00E2E3AF0E0E832D091505040E6953D
:10129000001CCAF72BD0FE2F29D0660F771F881F9E
:1012A000BB1F261737074807AB07B0E809F0BB0B91
:1012B000802DBF01FF2793585F4F3AF09E3F5105A5
:1012C00078F00C94180A0C94630A5F3FE4F3983E9C
:1012D000D4F3869577956795B795F7959F5FC9F78E
:1012E000880F911D9695879597F90895E1E0660F0F
:1012F000771F881FBB1F621773078407BA0720F088
:10130000621B730B840BBA0BEE1F88F7E0950895F0
:101310000E94480A88F09F5798F0B92F9927B75133
:10132000B0F0E1F0660F771F881F991F1AF0BA9589
:10133000C9F714C0B13091F00E94620AB1E008957B
:101340000C94620A672F782F8827B85F39F0B93F6D
:10135000CCF3869577956795B395D9F73EF490953C
:101360008095709561957F4F8F4F9F4F0895E894BA
:1013700009C097FB3EF490958095709561957F4FDD
:101380008F4F9F4F9923A9F0F92F96E9BB2793958B
:10139000F695879577956795B795F111F8CFFAF49B
:1013A000BB0F11F460FF1BC06F5F7F4F8F4F9F4FCC
:1013B00016C0882311F096E911C0772321F09EE82A
:1013C000872F762F05C0662371F096E8862F70E090
:1013D00060E02AF09A95660F771F881FDAF7880F6A
:1013E0009695879597F90895990F0008550FAA0BC0
:1013F000E0E8FEEF16161706E807F907C0F0121628
:101400001306E407F50798F0621B730B840B950B2A
:1014100039F40A2661F0232B242B252B21F408957F
:101420000A2609F4A140A6958FEF811D811D08951C
:1014300097F99F6780E870E060E008959FEF80EC87
:10144000089500240A94161617061806090608952A
:1014500000240A9412161306140605060895092E90
:101460000394000C11F4882352F0BB0F40F4BF2BFF
:1014700011F460FF04C06F5F7F4F8F4F9F4F08953F
:1014800057FD9058440F551F59F05F3F71F0479535
:10149000880F97FB991F61F09F3F79F0879508951A
:1014A000121613061406551FF2CF4695F1DF08C039
:1014B000161617061806991FF1CF86957105610556
:1014C00008940895E894BB2766277727CB0197F9FE
:1014D00008950E94F40908F48FEF08950E94810A8C
:1014E0000C942F0A0E94210A38F00E94280A20F04A
:1014F000952311F00C94180A0C941E0A11240C94D4
:10150000630A0E94400A70F3959FC1F3950F50E063
:10151000551F629FF001729FBB27F00DB11D639FA5
:10152000AA27F00DB11DAA1F649F6627B00DA11D4B
:10153000661F829F2227B00DA11D621F739FB00DF1
:10154000A11D621F839FA00D611D221F749F332761
:10155000A00D611D231F849F600D211D822F762FFA
:101560006A2F11249F5750409AF0F1F088234AF0D7
:10157000EE0FFF1FBB1F661F771F881F9150504043
:10158000A9F79E3F510580F00C94180A0C94630A49
:101590005F3FE4F3983ED4F3869577956795B795CA
:1015A000F795E7959F5FC1F7FE2B880F911D9695E4
:1015B000879597F908950E94F409880B990B08956F
:1015C000EE0FFF1F0590F491E02D0994F894FFCFE2
:1015D00001000000004F01AF00DC00B7010D01EB7E
:1015E00000FF0000000000F403AF007A0279026EF1
:1015F000616E00696E66006F7666000D0A005465C4
:101600006D703A2000430048756D69646974793AD9
:101610002000250044485431313A204572726575E6
:10162000720044485431313A20436F646500426986
:10163000656E76656E756520617500475041373877
:0A16400038204F432F496F5400007B
:107E0000112484B714BE81FFF0D085E080938100F7
:107E100082E08093C00088E18093C10086E0809377
:107E2000C20080E18093C4008EE0C9D0259A86E02C
:107E300020E33CEF91E0309385002093840096BBD3
:107E4000B09BFECF1D9AA8958150A9F7CC24DD24C4
:107E500088248394B5E0AB2EA1E19A2EF3E0BF2EE7
:107E6000A2D0813461F49FD0082FAFD0023811F036
:107E7000013811F484E001C083E08DD089C08234E0
:107E800011F484E103C0853419F485E0A6D080C0E4
:107E9000853579F488D0E82EFF2485D0082F10E0AE
:107EA000102F00270E291F29000F111F8ED06801E7
:107EB0006FC0863521F484E090D080E0DECF843638
:107EC00009F040C070D06FD0082F6DD080E0C81688
:107ED00080E7D80618F4F601B7BEE895C0E0D1E017
:107EE00062D089930C17E1F7F0E0CF16F0E7DF06D8
:107EF00018F0F601B7BEE89568D007B600FCFDCFD4
:107F0000A601A0E0B1E02C9130E011968C91119780
:107F100090E0982F8827822B932B1296FA010C0160
:107F200087BEE89511244E5F5F4FF1E0A038BF0790
:107F300051F7F601A7BEE89507B600FCFDCF97BE46
:107F4000E89526C08437B1F42ED02DD0F82E2BD052
:107F50003CD0F601EF2C8F010F5F1F4F84911BD097
:107F6000EA94F801C1F70894C11CD11CFA94CF0C13
:107F7000D11C0EC0853739F428D08EE10CD085E9AC
:107F80000AD08FE07ACF813511F488E018D01DD067
:107F900080E101D065CF982F8091C00085FFFCCF94
:107FA0009093C60008958091C00087FFFCCF809118
:107FB000C00084FD01C0A8958091C6000895E0E648
:107FC000F0E098E1908380830895EDDF803219F02E
:107FD00088E0F5DFFFCF84E1DECF1F93182FE3DFCA
:107FE0001150E9F7F2DF1F91089580E0E8DFEE27F6
:047FF000FF270994CA
:027FFE00040479
:00000001FF
